S0170000536D6172745061726B53797374656D2E73726563F3
S11300007DC00000A1C10000AEC1000098C0000086
S113001096C0000094C0000092C0000090C0000090
S11300208EC000008CC000008AC0000088C00000A0
S113003086C0000084C0000082C0000080C00000B0
S11300407EC000007CC000007AC0000078C00000C0
S113005076C0000074C0000072C0000070C00000D0
S11300606EC000006CC000006AC0000068C00000E0
S113007066C0000064C0000062C0000060C00000F0
S11300805EC000005CC000005AC0000058C0000000
S113009056C0000054C0000052C0000050C0000010
S11300A04EC000004CC000004AC0000048C0000020
S11300B046C0000044C0000042C0000040C0000030
S11300C03EC000003CC000003AC0000038C0000040
S11300D036C0000034C0000032C0000030C0000050
S11300E02EC000000D061A06270648065A06820688
S11300F09406A706B306C606DB06010711241FBE35
S1130100CFEFD1E2DEBFCDBF00E00CBF18E0A0E02E
S1130110B2E0E4ECFEE100E00BBF02C007900D92F8
S1130120A234B107D9F722E1A2E4B8E001C01D92DC
S1130130A736B207E1F70E9478090C94600F60CFEC
S1130140E2E0F1E090819F7E9083809305018081BD
S11301508064808383ED90E30197F1F700C0000091
S113016080818F7B808383ED90E30197F1F700C05A
S113017000000895E2E0F1E0908190619083809323
S1130180050180818064808383EC99E00197F1F715
S113019000C0000080818F7B808383EC99E001970D
S11301A0F1F700C000000895E2E0F1E090819F7E45
S11301B090838093050180818064808383EC99E03F
S11301C00197F1F700C0000080818F7B808383EC6E
S11301D099E00197F1F700C000000895611102C091
S11301E090E801C090EC890FABCF0895CF93DF93D3
S11301F0EC0102C0BFDF219688818111FBCFDF9122
S1130200CF910895CF93DF93CDB7DEB760970FB644
S1130210F894DEBF0FBECDBF4AE050E0BE016F5F71
S11302207F4F0E94190CCE010196E0DF60960FB655
S1130230F894DEBF0FBECDBFDF91CF91089581E06A
S11302407FDF83EC99E00197F1F700C00000089587
S113025082E076DF83EC99E00197F1F700C00000BB
S1130260089592B19F7E92B985B982B1806482B9B2
S113027083ED90E30197F1F700C0000082B18F7B1A
S113028082B983ED90E30197F1F700C0000008956F
S113029092B1906192B985B982B1806482B983EDDB
S11302A090E30197F1F700C0000082B18F7B82B91F
S11302B083ED90E30197F1F700C00000089592B137
S11302C09F7E92B985B982B1806482B983ED90E34F
S11302D00197F1F700C0000082B18F7B82B983EDF2
S11302E090E30197F1F700C000000895662331F010
S11302F0613031F0623031F494E905C090E803C014
S113030090EC01C094ED890FACCF0895CF93DF93A7
S1130310EC0102C0BDDF219688818111FBCFDF9102
S1130320CF91089581E09DDF83ED90E30197F1F78C
S113033000C00000089582E094DF83EC99E0019707
S1130340F1F700C0000008951F920F920FB60F92AC
S113035011248F9381E0809343088F910F900FBEF7
S11303600F901F9018951F920F920FB60F921124A1
S11303708F9381E0809343088F910F900FBE0F906D
S11303801F901895CF93DF93CDB7DEB76D970FB657
S1130390F894DEBF0FBECDBF85E1E9E1F2E0DE01F6
S11303A0119601900D928A95E1F788E0EEE2F2E071
S11303B0DE01569601900D928A95E1F7B3DFCE01E6
S11303C00196A4DF61E080E091DFCE0146969EDFD6
S11303D06D960FB6F894DEBF0FBECDBFDF91CF91FF
S11303E00895CF93DF93CDB7DEB760970FB6F89437
S11303F0DEBF0FBECDBF80E1E6E3F2E0DE01119681
S113040001900D928A95E1F78DDF61E080E06EDF67
S1130410CE0101967BDF60960FB6F894DEBF0FBE67
S1130420CDBFDF91CF910895CF93DF93CDB7DEB7E2
S113043069970FB6F894DEBF0FBECDBF73DF81E1BD
S1130440E6E4F2E0DE01119601900D928A95E1F75F
S113045088E0E7E5F2E0DE01529601900D928A957C
S1130460E1F769DFCE01019651DF61E080E03EDF14
S1130470CE0142964BDF69960FB6F894DEBF0FBEED
S1130480CDBFDF91CF91089582B1816082B9CCDF75
S11304902FEF8BE792E9215080409040E1F700C0B4
S11304A0000082B18E7F82B9109243082FEF8BE750
S11304B092E9215080409040E1F700C0000062CFF3
S11304C0089586E194E07CD78FE592E079D788E9B6
S11304D092E076C7089586E194E072D78FE592E0C2
S11304E06FD787EB92E06CD787ED92E069D787EFFF
S11304F092E066D781E193E063D78BE293E060D723
S113050080E493E05DD789E593E05AD784E793E0EC
S113051057D78AE893E054D781EA93E051D78BEB1D
S113052093E04ED78FEC93E04BC708954091540865
S113053050915508209111023091120281E0421726
S113054053070CF480E008950F931F93CF93DF9328
S1130550C0E0D0E041C089E18C9FF0018D9FF00D97
S11305601124E55AF74F808D882309F434C083EEB3
S113057093E026D789E18C9F80018D9F100D112473
S1130580055A174FC8011CD786E194E019D782EFAA
S113059093E016D7F80184899589A6D786E194E07B
S11305A00FD78DEF93E00CD7F801868997899CD7F4
S11305B086E194E005D786E094E002D7F801808DC7
S11305C0882319F08CED93E002C080EE93E0F8D616
S11305D084E194E0F5D6219680914A0890914B08E5
S11305E0C817D9070CF4B7CFDF91CF911F910F91A2
S11305F00895CF93DF9389E194E0E2D684E190E01B
S1130600F1D666E072E00E94090C892B09F04CC017
S11306108EE294E0D5D682E394E0D2D615D7EC01ED
S1130620CFD61C161D0684F580910D0290910E0202
S11306308C0F9D1F20910F0230911002281739074B
S11306409CF090930E0280930D0242E050E06AE029
S113065070E08DE092E00E94490F85E694E0B0D608
S113066086E194E0ADD606C089E794E0A9D686E198
S113067094E0A6D62FEF87EA91E62150804090407F
S1130680E1F700C000001FC083E994E099D686E139
S113069094E096D62FEF87EA91E62150804090406F
S11306A0E1F700C000000FC08EEA94E089D686E12D
S11306B094E086D62FEF87EA91E62150804090405F
S11306C0E1F700C00000DF91CF9108950F931F93CD
S11306D0CF93DF9386ED94E073D684E190E082D6E5
S11306E08C01C0E0D0E052C089E18C9FF0018D9F65
S11306F0F00D1124E55AF74F808D882309F445C085
S1130700B801CF010E94090C892B09F03EC089E190
S11307108C9FF0018D9FF00D1124E55AF74F448909
S1130720558920914E0830914F08241B350B309386
S11307304F0820934E088689978920914C08309160
S11307404D08281B390B30934D0820934C08840F17
S1130750951F2091540830915508A901481B590B45
S11307605093550840935408108E86E095E028D69F
S113077086E194E025D680914A0890914B08019730
S113078090934B0880934A0809C02196C436D1053A
S11307900CF4AACF82E295E013D69DDEDF91CF91CF
S11307A01F910F910895609117027091180242E011
S11307B050E089E598E00E94390F809159089091A2
S11307C05A08019709F463C042E050E060E070E029
S11307D085E192E00E94490F42E050E062E070E05F
S11307E08BE092E00E94490F42E050E064E070E048
S11307F083E192E00E94490F42E050E066E070E03D
S113080081E192E00E94490F42E050E068E070E02C
S11308108FE092E00E94490F42E050E06AE070E00D
S11308208DE092E00E94490FE6E0F2E001900020A2
S1130830E9F73197AF014650524062E170E086E03B
S113084092E00E94490F42E050E066E170E088E4E3
S113085098E00E94490F42E050E06AE170E080E5D0
S113086098E00E94490F81E090E090935A088093A9
S11308705908609117027091180242E050E089E52E
S113088098E00E94490F81E495E09AC5089542E0FA
S113089050E060E070E085E192E00E94390F42E0B0
S11308A050E062E070E08BE092E00E94390F42E099
S11308B050E064E070E083E192E00E94390F42E08E
S11308C050E066E070E081E192E00E94390F42E07E
S11308D050E068E070E08FE092E00E94390F42E05F
S11308E050E06AE070E08DE092E00E94390FE6E0AB
S11308F0F2E001900020E9F73197AF0146505240F1
S113090062E170E086E092E00E94390F42E050E03C
S113091066E170E088E498E00E94390F42E050E01C
S11309206AE170E080E598E00E94390F8BE695E07B
S113093047D586E194E044C5089582E088B90895D6
S113094081E088B90895CF93DF93CDB7DEB7E897F8
S11309500FB6F894DEBF0FBECDBF81E1E6E4F2E04E
S1130960DE01119601900D928A95E1F788E0E7E5A2
S1130970F2E0DE01529601900D928A95E1F78FE044
S1130980E4E9F5E0DE015A9601900D928A95E1F7CB
S113099080E1E3EAF5E0DE01999601900D928A95F3
S11309A0E1F7CBDFBFDCC7DCCE010196AFDC61E051
S11309B080E09CDCCE014296A9DC62E080E096DC1B
S11309C0CE014A96A3DC2FEF8BE792E921508040B9
S11309D09040E1F700C00000A5DCADDCCE0101963B
S11309E095DC61E080E082DCCE0142968FDC62E03F
S11309F080E07CDCCE01899689DC9DDCA1DF2FEFD1
S1130A0087EA91E6215080409040E1F700C0000061
S1130A1018B8B8DCE8960FB6F894DEBF0FBECDBFA9
S1130A20DF91CF910895AF92BF92CF92DF92EF9270
S1130A30FF920F931F93CF93DF93CDB7DEB76997E0
S1130A400FB6F894DEBF0FBECDBF70DD8111A8C014
S1130A5083EB95E0B5D484E190E0C4D45C018BEDE4
S1130A6095E0AED4F1D47C018FE096E0A9D4ECD427
S1130A708C01C701800F911FC0905408D090550875
S1130A808C0D9D1D209111023091120228173907F7
S1130A906CF48DE396E094D42FEF87EA91E621502D
S1130AA080409040E1F700C000009BC0B501CE013A
S1130AB00196B8D6FE8AED8A188F0F8B81E0898F54
S1130AC040914A0850914B0889E1849FD001859F49
S1130AD0B00D1124A55AB74FFE01319601900D9225
S1130AE08A95E1F780914E0890914F08B701680FFD
S1130AF0791F70934F0860934E0820914C083091F1
S1130B004D08C801820F931F90934D0880934C08A1
S1130B10860F971F8C0D9D1D909355088093540844
S1130B204F5F5F4F50934B0840934A08015011099F
S1130B302091150230911602E29EC001E39E900DB1
S1130B40F29E900D11242091130230911402029F01
S1130B50A001039F500D129F500D112420915008A5
S1130B6030915108820F931F840F951F9093510861
S1130B708093500842E050E06AE170E080E598E03C
S1130B800E94490FE0DE8091520890915308181694
S1130B9019063CF50197909353088093520821C09D
S1130BA08091520890915308019690935308809332
S1130BB052088AE0E3E5F6E0DE01119601900D9219
S1130BC08A95E1F7AFDBB7DBCE0101969FDB2FEF10
S1130BD083E294EF215080409040E1F700C0000090
S1130BE0D1DB69960FB6F894DEBF0FBECDBFDF919F
S1130BF0CF911F910F91FF90EF90DF90CF90BF9016
S1130C00AF90089501978C30910508F009C1FC015B
S1130C108827EE58FF4F8F4FA2C4E3DB04DF2FEF8A
S1130C2087EA91E6215080409040E1F700C000003F
S1130C3052CC08954BDD2FEF87EA91E62150804096
S1130C409040E1F700C0000046DC7DCE08958DE5BC
S1130C5096E0B6D384E796E0B3D380914E089091A2
S1130C604F0842D486E194E0ABD38DE896E0A8D354
S1130C7080914C0890914D0837D42FEF87EA91E684
S1130C80215080409040E1F700C0000024CC08953A
S1130C9083EA96E095D386E194E092D355DC2FEF76
S1130CA087EA91E6215080409040E1F700C00000BF
S1130CB012CC08958AEB96E083D340910B025091B5
S1130CC00C028091480890914908489F9001499FDF
S1130CD0300D589F300D1124809150089091510887
S1130CE0820F931F9093621280936112FDD32FEFB2
S1130CF087EA91E6215080409040E1F700C000006F
S1130D00EACB08958FEC96E05BD380914A08805D2E
S1130D1050D32FEF87EA91E6215080409040E1F7CD
S1130D2000C00000D8CB089585EE96E049D38091A9
S1130D300D0290910E02D8D32FEF87EA91E621504D
S1130D4080409040E1F700C00000C5CB089551DC1D
S1130D502FEF87EA91E6215080409040E1F700C0F0
S1130D600000B9CB08958DEF96E02AD38091520804
S1130D7090915308B9D32FEF87EA91E62150804030
S1130D809040E1F700C00000A6CB0895CFDB882394
S1130D9021F080E197E014D303C08FE197E010D3F2
S1130DA02FEF87EA91E6215080409040E1F700C0A0
S1130DB0000091CB0895109251081092500810929F
S1130DC049081092480842E050E06AE170E080E58A
S1130DD098E00E94490F42E050E066E170E088E448
S1130DE098E00E94490F82E397E0EAD22FEF87EA66
S1130DF091E6215080409040E1F700C000006BCBA9
S1130E0008951092470882E497E0DAD22FEF87EA38
S1130E1091E6215080409040E1F700C0000051CBA2
S1130E200895CF938091C00088230CF063C0BAD298
S1130E30C82FBFD280915708882309F454C0CD30FD
S1130E4019F0CA3009F041C0E0915608EE2309F4C4
S1130E5051C0F0E0E15DFD4E108280914708882387
S1130E6081F08FE292E1B8D4809358089FEF980FF5
S1130E709C3018F490E0C6DE23C082E597E0A0D24F
S1130E801FC066E072E08FE292E1C3D4892B89F43B
S1130E9081E08093470886E797E092D22FEF87EAB4
S1130EA091E6215080409040E1F700C0000013DB40
S1130EB007C084E897E084D28FE292E181D201DB1B
S1130EC0109257081092560815C08091560890E069
S1130ED0FC01E15DFD4EC083019662E370E02CD31A
S1130EE08093560807C081E080935708C0932F125F
S1130EF080935608CF910895CF93DF93CDB7DEB793
S1130F00C154D1090FB6F894DEBF0FBECDBF80E146
S1130F10EAEAF7E0DE01119601900D928A95E1F775
S1130F2082E1EAEBF7E0DE01519601900D928A9599
S1130F30E1F782E1ECECF7E0DE01939601900D928B
S1130F408A95E1F78DE0EEEDF7E0DE01D5960190AC
S1130F500D928A95E1F773D9CE01019647D961E0E4
S1130F6080E03CD9CE01419641D92FEF8BE792E93D
S1130F70215080409040E1F700C0000060D968D95A
S1130F80CE01839633D961E080E028D9CE01C5969D
S1130F902DD9CF5BDF4F0FB6F894DEBF0FBECDBFA8
S1130FA0DF91CF910895AC0120E030E030C0EBE058
S1130FB0F1E096E690836FEF80E792E06150804025
S1130FC09040E1F700C0000093E390836FEF80E767
S1130FD092E0615080409040E1F700C0000099E940
S1130FE090836FEF80E792E0615080409040E1F79A
S1130FF000C000009CEC90836FEF83ED90E36150A0
S113100080409040E1F700C000002F5F3F4F24175D
S113101035076CF20895AC0120E030E02EC096E66E
S113102091BB6FEF80E792E0615080409040E1F720
S113103000C0000093E391BB6FEF80E792E0615042
S113104080409040E1F700C0000099E991BB6FEF48
S113105080E792E0615080409040E1F700C00000DA
S11310609CEC91BB6FEF83ED90E361508040904026
S1131070E1F700C000002F5F3F4F241735077CF2D3
S113108008958BEF809308018091060183FF0AC0C5
S11310908091060184FF08C08091060185FF06C087
S11310A080E005C081E303C084E301C087E39DEFD2
S11310B0909308019091060193FF0DC09091060151
S11310C094FF0BC09091060195FF09C09091060111
S11310D096FF07C007C082E305C085E303C088E329
S11310E001C080E39EEF909308019091060193FF65
S11310F00DC09091060194FF0BC09091060195FFDD
S113110009C09091060196FF07C007C083E305C09C
S113111086E303C089E301C083E290914208891306
S113112008C08FE39CE90197F1F700C0000080E05C
S113113008958093420808950F931F93CF93DF93EC
S11311408C01C0E0D0E00DC082E090E02CDF2FEFF6
S113115087EA91E6215080409040E1F700C000000A
S11311602196C017D10784F3DF91CF911F910F917E
S11311700895CF93DF93809144089091450820917E
S11311800B0230910C02829FE001839FD00D929F4D
S1131190D00D112420910D0230910E022817390729
S11311A07CF44DD88BEE97E021D82FEF83ED90E3BC
S11311B0215080409040E1F700C000009DDE65C0F2
S11311C03ED846D888EF97E011D8CE011BD861E00D
S11311D080E004D883E098E009D83AD852DF83321B
S11311E0E9F72FEF83ED90E3215080409040E1F741
S11311F000C0000083E090E00EDF2FEF87EA91E665
S1131200215080409040E1F700C0000080914408E4
S11312109091450891DF20914808309149088091C8
S1131220440890914508820F931F90934908809336
S1131230480842E050E066E170E088E498E029D68E
S113124080910D0290910E0220914408309145083E
S1131250821B930B90930E0280930D0242E050E0A8
S11312606AE070E08DE092E014D60E941F0186E1EE
S113127098E00E94F6002FEF8BE792E9215080401E
S11312809040E1F700C0000037DEDF91CF91089570
S1131290F8DE90914608992319F0913099F0089559
S11312A0833221F481E08093460808958823F9F07D
S11312B0EFE1F2E101900020E9F7319780830C948B
S11312C0BA0008958FE192E187D290934508809304
S11312D04408892B11F04DDF01C00EDE80E1EFE1FF
S11312E0F2E1DF011D928A95E9F71092460808950C
S11312F04DD08AB18E7F8AB98BB181608BB98AB1A6
S11313008D7F8AB98BB182608BB978948DB38160FB
S11313108DBBE9E6F0E08081816080838DB38260DB
S11313208DBB80818460808382B18E7F82B9CFEF50
S1131330C1B9C7B987E08093070104E011E0F8015F
S1131340C083C0930A01C0BB2EDAC0930101F80127
S1131350C0838FE30E94D4008CE00E94D400C1B902
S1131360C4B98FE30E945F018CE00E945F01A9D899
S11313700E94920107D80E941F01BEDD52DD88DF62
S1131380809143088823D1F37FD8F8CFE1ECF0E0D3
S113139080818861808387E690E09093C500809384
S11313A0C40008958091C0008823E4F78091C600AA
S11313B008959091C00095FFFCCF8093C6000895D6
S11313C00F931F93CF938C01C0E002C0F2DFCF5F75
S11313D0F801EC0FF11D80818111F8CFCF911F919D
S11313E00F910895CF92DF92EF92FF920F931F9384
S11313F0CF936C01D0D07C01892BE1F000E010E0A8
S11314000DC0D0DFC82FD5DFCA3069F0CD3059F018
S1131410F701E00FF11FC0830F5F1F4FC601019753
S11314200817190774F3F701E00FF11F10828E2DCE
S11314309F2D02C080E090E0CF911F910F91FF900B
S1131440EF90DF90CF900895EF92FF921F93CF9388
S1131450DF93CDB7DEB72A970FB6F894DEBF0FBE81
S1131460CDBFE12CF12C9EDF182FA3DF1A3069F0D9
S11314701D3059F0E1E0F0E0EC0FFD1FEE0DFF1D13
S113148010838FEFE81AF80AEECFE1E0F0E0EC0FFA
S1131490FD1FEE0DFF1D1082CE0101969DD12A96EF
S11314A00FB6F894DEBF0FBECDBFDF91CF911F9171
S11314B0FF90EF9008950F931F93CF93DF938C01C8
S11314C0C0E0D0E0F801EC0FFD1F808172DF2196AF
S11314D0F801EC0FFD1F80818111F4CF6ADFDF91E9
S11314E0CF911F910F9108950F931F93CF93DF9383
S11314F0182F092F85E190E04ED0EC01892BA1F043
S11315000F931F9385E298E09F938F93DF93CF937C
S1131510C5D1CE01D0DFCE01D6D00F900F900F9061
S11315200F900F900F9003C088E298E0C4DFDF9122
S1131530CF911F910F91089597FB072E16F40094F5
S113154006D077FD08D013D007FC05D03EF4909563
S113155081959F4F0895709561957F4F0895EE0F83
S1131560FF1F881F8BBF0790F691E02D1994AA1BCB
S1131570BB1B51E107C0AA1FBB1FA617B70710F07A
S1131580A61BB70B881F991F5A95A9F780959095AC
S1131590BC01CD0108950F931F93CF93DF93823045
S11315A0910510F482E090E0E0916512F0916612EA
S11315B020E030E0A0E0B0E0309719F140815181A3
S11315C00281138148175907C8F08417950769F4F5
S11315D0109731F012960C93129713961C9327C010
S11315E0009365121093661222C02115310519F07B
S11315F04217530718F49A01BD01EF01DF01F80106
S1131600DBCF21153105F9F0281B390B24303105C6
S113161080F48A819B816115710521F0FB0193831C
S1131620828304C09093661280936512FE01329601
S113163044C0FE01E20FF31F8193919322503109BC
S1131640398328833AC02091631230916412232B8A
S113165041F42091020230910302309364122093EA
S1131660631220910002309101022115310541F4E9
S11316702DB73EB74091040250910502241B350B4F
S1131680E0916312F0916412E217F307A0F42E1BA9
S11316903F0B2817390778F0AC014E5F5F4F2417D2
S11316A0350748F04E0F5F1F509364124093631246
S11316B08193919302C0E0E0F0E0CF01DF91CF91FC
S11316C01F910F910895CF93DF93009709F481C080
S11316D0FC01329713821282A0916512B0916612B6
S11316E0109781F420813181820F931F209163121E
S11316F0309164122817390751F5F0936412E0937E
S1131700631267C0ED0120E030E0CE17DF0740F43C
S11317104A815B819E0141155105F1F0EA01F5CF43
S1131720D383C28340815181840F951FC817D90781
S113173059F488819981840F951F0296918380833F
S11317408A819B81938382832115310529F4F09347
S11317506612E09365123DC0E901FB83EA83499177
S11317605991C40FD51FEC17FD0761F48081918155
S1131770840F951F0296E90199838883828193815E
S11317809B838A83E0E0F0E012968D919C911397FD
S1131790009719F0FD01DC01F7CF8D919C91119711
S11317A09D012E5F3F4F820F931F20916312309152
S11317B064122817390769F4309729F410926612D5
S11317C01092651202C013821282B0936412A09325
S11317D06312DF91CF910895FC0188279927E8943B
S11317E021912032E9F3293010F02E30C8F32B3246
S11317F039F02D3231F4689403C02FD0820F911D3B
S1131800219120532A30C8F31EF4909581959F4F5F
S11318100895FB01DC018D91019080190110D9F329
S1131820990B0895FB01DC0101900D920020E1F772
S113183008954532510518F4423008F004C0FB0104
S11318401082CB010895BB274A3031F4992322F446
S1131850BDE2909581959F4F09C07AE0979F902DA6
S1131860879F802D910D11240895BB27FB015527D7
S1131870AA27880F991FAA1FA41710F0A41B8395E9
S11318805051B9F7A05DAA3308F0A95DA193009760
S113189079F7B111B1931192CB0141C20F931F9308
S11318A0CF93DF93CDB7DEB72E970FB6F894DEBF94
S11318B00FBECDBF0E891F8986E08C831A830983EE
S11318C08FEF9FE79E838D83AE01465E5F4F688DE9
S11318D0798DCE01019610D0EF81F885E00FF11FCC
S11318E010822E960FB6F894DEBF0FBECDBFDF91E7
S11318F0CF911F910F9108952F923F924F925F9233
S11319006F927F928F929F92AF92BF92CF92DF920B
S1131910EF92FF920F931F93CF93DF93CDB7DEB770
S11319202B970FB6F894DEBF0FBECDBF6C017B01C1
S11319308A01FC0117821682838181FFBFC1CE0117
S113194001963C01F6019381F70193FD859193FF84
S113195081917F01882309F4ADC1853239F493FD67
S1131960859193FF81917F01853221F4B60190E046
S1131970E6D1E8CF912C212C312CFFE1F315D8F0DE
S11319808B3279F038F4803279F08332A1F4232D4C
S113199020611DC08D3261F0803369F4232D2160F4
S11319A016C0832D8260382EE32DE4603E2E2AC0BB
S11319B0F32DF8601DC037FC2DC020ED280F2A3010
S11319C040F08E32B9F436FC75C1232D2064322EDA
S11319D019C036FE06C08AE0989E200D1124922E6E
S11319E011C0EAE02E9E200D1124222EF32DF06268
S11319F03F2E08C08C3621F4832D8068382E02C017
S1131A00883641F4F70193FD859193FF81917F011D
S1131A108111B3CF982F9F7D9554933028F40C5F98
S1131A201F4F9FE399830DC0833631F0833771F0E4
S1131A30833509F055C020C0F801808189830E5F89
S1131A401F4F88248394912C530112C02801F2E083
S1131A504F0E511CF801A080B18036FE03C0692DE1
S1131A6070E002C06FEF7FEFC5014ED14C018201DF
S1131A70F32DFF773F2E15C0280122E0420E511CA2
S1131A80F801A080B18036FE03C0692D70E002C069
S1131A906FEF7FEFC5012DD14C01F32DF0683F2E80
S1131AA0820133FC19C0822D90E088169906A0F4B7
S1131AB0B60180E290E043D12A94F5CFF50137FCDA
S1131AC0859137FE81915F01B60190E038D12110F4
S1131AD02A9421E0821A91088114910479F7E1C0D3
S1131AE0843611F0893639F5F80137FE07C0608174
S1131AF07181828193810C5F1F4F08C06081718165
S1131B00072E000C880B990B0E5F1F4FF32DFF76E9
S1131B103F2E97FF09C090958095709561957F4FF2
S1131B208F4F9F4FF0683F2E2AE030E0A30143D14E
S1131B30882E861844C0853731F4232D2F7EB22E8B
S1131B402AE030E025C0932D997FB92E8F36C1F05D
S1131B5018F4883579F0AEC0803719F0883721F051
S1131B60A9C0E92FE061BE2EB4FE0DC0FB2DF460C8
S1131B70BF2E09C034FE0AC0292F2660B22E06C02B
S1131B8028E030E005C020E130E002C020E132E08E
S1131B90F801B7FE07C060817181828193810C5F77
S1131BA01F4F06C06081718180E090E00E5F1F4F7F
S1131BB0A30101D1882E8618FB2DFF773F2E36FE18
S1131BC00DC0232D2E7FA22E891458F434FE0BC091
S1131BD032FC09C0832D8E7EA82E05C0B82CA32C00
S1131BE003C0B82C01C0B92CA4FE0FC0FE01E80D3F
S1131BF0F11D8081803321F49A2D997EA92E09C08C
S1131C00A2FE06C0B394B39404C08A2D867809F06A
S1131C10B394A3FC10C0A0FE06C0B21480F4280C38
S1131C20922C9B180DC0B21458F4B60180E290E0D7
S1131C3086D0B394F8CFB21418F42B1802C0982CA1
S1131C40212CA4FE0FC0B60180E390E078D0A2FE60
S1131C5016C0A1FC03C088E790E002C088E590E0CC
S1131C60B6010CC08A2D867851F0A1FE02C08BE229
S1131C7001C080E2A7FC8DE2B60190E060D0891437
S1131C8030F4B60180E390E05AD09A94F8CF8A9465
S1131C90F301E80DF11D8081B60190E050D0811070
S1131CA0F6CF222009F44ECEB60180E290E047D070
S1131CB02A94F7CFF6018681978102C08FEF9FEFB8
S1131CC02B960FB6F894DEBF0FBECDBFDF91CF9138
S1131CD01F910F91FF90EF90DF90CF90BF90AF9046
S1131CE09F908F907F906F905F904F903F902F9038
S1131CF00895FC010590615070400110D8F780955B
S1131D0090958E0F9F1F0895FC01615070400190C3
S1131D100110D8F7809590958E0F9F1F0895DC01D0
S1131D20FC01672F71917723E1F7329704C07C910E
S1131D306D9370836291AE17BF07C8F308950F9334
S1131D401F93CF93DF93FB01238121FD03C08FEF0A
S1131D509FEF2CC022FF16C0468157812481358114
S1131D604217530744F4A081B1819D012F5F3F4F77
S1131D70318320838C93268137812F5F3F4F3783B4
S1131D80268314C08B01EC01FB010084F185E02D56
S1131D901995892BE1F6D80116968D919C91179788
S1131DA0019617969C938E931697CE01DF91CF914F
S1131DB01F910F910895FA01AA27283051F120317B
S1131DC081F1E8946F936E7F6E5F7F4F8F4F9F4FCB
S1131DD0AF4FB1E03ED0B4E03CD0670F781F891F0D
S1131DE09A1FA11D680F791F8A1F911DA11D6A0FDB
S1131DF0711D811D911DA11D20D009F468943F918E
S1131E002AE0269F11243019305D3193DEF6CF018C
S1131E100895462F4770405D4193B3E00FD0C9F752
S1131E20F6CF462F4F70405D4A3318F0495D31FDBF
S1131E304052419302D0A9F7EACFB4E0A695979512
S1131E40879577956795BA95C9F7009761057105E8
S1131E5008959B01AC010A2E069457954795379532
S1131E602795BA95C9F7620F731F841F951FA01D8C
S1131E700895DC01CB01FC01F999FECF06C0F2BD47
S1131E80E1BDF89A319600B40D9241505040B8F734
S1131E900895DC01CB0102C02D9105D04150504082
S1131EA0D8F70895262FF999FECF1FBA92BD81BDA8
S1131EB020BD0FB6F894FA9AF99A0FBE01960895C8
S1071EC0F894FFCFC0
S1131EC40000671220003132333400DC0532003262
S1131ED40064008813B80B1000517565656E2045C5
S1131EE46C697A6162657468205061726B0057652D
S1131EF46C636F6D650052656769737472617469AC
S1131F046F6E2E2E2E00496E636F6D696E672054BA
S1131F146F75726973740056656869636C650057FC
S1131F24656C636F6D6520746F20746865205175EA
S1131F3465656E20456C697A6162657468205061D8
S1131F44726B204D616E6167656D656E7420436FBD
S1131F546E736F6C650D0A00456E74657220746847
S1131F64652070617373776F726420746F206C6F73
S1131F7467696E200D0A00312E20526567697374F7
S1131F84657220496E636F6D696E6720546F757254
S1131F94697374730D0A00322E2052656769737471
S1131FA46572204F7574676F696E6720546F75721C
S1131FB4697374730D0A00332E20546F7572697338
S1131FC4747320696E20746865207061726B0D0AE5
S1131FD400342E2056656869636C657320696E202D
S1131FE4746865207061726B0D0A00352E204D6F84
S1131FF46E657920636F6C6C65637465640D0A00A7
S1132004362E204472697665727320696E20746872
S113201465207061726B0D0A00372E20426F747450
S11320246C657320696E20746865206672696467E0
S1132034650D0A00382E205265706C656E697368EC
S1132044204672696467650D0A00392E2043617263
S113205473206F757473696465207061726B0D0A03
S11320640031302E205061726B20436170616369CA
S113207474792053746174650D0A0031312E204340
S11320846F6C6C656374206D6F6E65790D0A003135
S1132094322E204C6F676F75740D0A0059657300F6
S11320A44E6F004E756D62657220506C6174653AB2
S11320B420004368696C6472656E3A20004164755B
S11320C46C74733A2000496E7369646520506172BC
S11320D46B3A20000D0A0D0A00456E746572207473
S11320E468652070617373776F72643A20000A2004
S11320F40D00456E74657220746865206E756D629A
S11321046572206F6620626F74746C657320746FDB
S11321142061646420746F20746865206672696445
S113212467653A2000467269646765207265706C5D
S1132134656E69736865642E004672696467652018
S11321446361706163697479207375727061737308
S1132154656400496E76616C6964206E756D6265B0
S113216472206F6620626F74746C65732E00496EFE
S113217476616C69642070617373776F72642E2066
S11321845265706C656E6973686D656E7420646500
S11321946E6965642E00456E7465722074686520EA
S11321A46E756D62657220706C617465206F662053
S11321B47468652065786974696E672076656869F2
S11321C4636C653A200045786974696E67207665A6
S11321D46869636C652072656769737465726564A4
S11321E42E0056656869636C65206E6F7420666F93
S11321F4756E6420696E20746865207061726B2E3C
S113220400436F6E66696775726174696F6E2076D8
S1132214616C756573207772697474656E20746F6C
S1132224204D656D6F72792E0D0A00436F6E6669D9
S11322346775726174696F6E2076616C756573205D
S11322446C6F616465642066726F6D204D656D6F9B
S113225472792E0043617220617420476174652E83
S11322642E2E004761746520636C6F73696E672E4C
S11322742E2E00456E74657220746865206E756D2B
S113228462657220706C617465206F662074686581
S11322942076656869636C653A2000456E746572DE
S11322A420746865206E756D626572206F662063A4
S11322B468696C6472656E202831302079656172B6
S11322C47320616E642062656C6F77293A2000453F
S11322D46E74657220746865206E756D6265722013
S11322E46F66206164756C7473202861626F76650F
S11322F4203130207965617273293A20004F766564
S11323047220746865206D61782C20736F72727901
S11323140D0A005041524B2046554C4C00546F75E5
S1132324726973747320696E2074686520706172B5
S11323346B3A0A004368696C6472656E20283C3DFC
S1132344203130207965617273293A200041647523
S11323546C747320283E20313020796561727329AE
S11323643A200056656869636C657320696E20744D
S11323746865207061726B3A20004D6F6E65792038
S1132384636F6C6C65637465643A20554758004404
S113239472697665727320696E2074686520706151
S11323A4726B3A2000426F74746C657320696E20FA
S11323B4746865206672696467653A2000576169C8
S11323C474696E6720546F7572697374733A20006C
S11323D45061726B2069732066756C6C2E0A005010
S11323E461726B206973206E6F742066756C6C2E39
S11323F40A004D6F6E657920636F6C6C6563746558
S113240464005468616E6B20796F752E2E2E2E0D28
S11324140A00496E76616C6964206F7074696F6E2A
S11324242E20506C65617365207472792061676134
S1132434696E2E0D0A0057656C636F6D652E2E2E22
S11324442E0D0A00496E76616C69642050617373C1
S1132454776F72642E20506C656173652074727991
S113246420616761696E2E0D0A004765742061203E
S1132474626F74746C65206F660077617465722092
S113248461742073682E20313530300053656C65D7
S1132494637420746865206E756D62657200206FC4
S11324A46620626F74746C65733A004F76657220AB
S11324B4746865204D617800436F73743A205547FE
S11324C45820005072657373202320746F20636F47
S11324D46E6669726D005468616E6B20596F752E57
S11324E42E2E2E2E002564004D656D6F72792061A9
S11324F46C6C6F636174696F6E206661696C65648A
S10525040000D1
S9030000FC
