:100000000C9472010C945C0E0C94310E0C94060E40
:100010000C94DB0D0C94B00D0C94850D0C945A0DC2
:100020000C942F0D0C94A3010C94A3010C94A30128
:100030000C94A3010C94A3010C94A3010C94A301B0
:100040000C94A3010C94A3010C94A3010C94A301A0
:100050000C94A3010C94A3010C94A3010C94E50C43
:100060000C94A3010C94AF0C0C94850C0C94A3017C
:100070000C94A3010C94A3010C94A3010C94A30170
:100080000C94A3010C94A3010C94A3010C94A30160
:100090000C94A3010C94A3010C94A3010C94A30150
:1000A0000C94A3010C94A3010C94A3010C94A30140
:1000B0000C94A3010C94A3010C94A3010C94A30130
:1000C0000C94A3010C94A3010C94A3010C94A30120
:1000D0000C94A3010C94A3010C94A3010C94A30110
:1000E0000C94A3010C94A2040C9491030C945A1444
:1000F0000C943A030C94D4040C9454040C943E03D2
:100100000C9448030C94F4110C9460030C94411467
:100110000C94AB040C9414050C94B1140C945A0375
:100120000C9416150C9456030C9483080C941D091A
:100130000C94FA010C94CC010C9431030C9495149A
:100140000C9471040C94FC140C941F030C9429035C
:100150000C94B7040C94B0020C941D020C9444034C
:100160000C9463020C94CD010C9409020C944C0382
:100170000C94BC140C94C8010C9484080C94C8040E
:100180000C94CF040C94A4040C9487040C94EA13EC
:100190000C942B020C9407150C9460040C94CC1650
:1001A0000C942D030C9464030C9452030C943403AC
:1001B0000C9425030C945F030C94870E0C94C714C5
:1001C00000002100240027002A002D003000330009
:1001D00001010000040107010A01000022002500BE
:1001E00028002B002E003100340002010000050120
:1001F00008010B01000020002300260029002C002C
:100200002F0032000001000003010601090105056D
:100210000505070508080808020202020A0A08087C
:1002200004040404010101010101010103030303AA
:1002300003030303040707070C0C0C0C0C0C0C0C39
:100240000202020206060606060606060B0B0B0B4A
:100250000B0B0B0B0102102020080810204010206F
:10026000408002010201080402010102040810207A
:100270004080804020100804020180040201804078
:1002800020100804020108040201010204081020E1
:100290004080010204081020408000000A0B02097F
:1002A0000C0D0E0807030401000000000000000010
:1002B000000000000000000000000000000000003E
:1002C00000000000000012111000000000000000FB
:1002D000000000000000000000000000000000001E
:1002E000870ECC1611241FBECFEFD1E2DEBFCDBFEB
:1002F00000E00CBF2EE0A2EBB7E001C01D92A23BD4
:10030000B207E1F717E0A0E0B2E0E6E7F7E300E0CC
:100310000BBF02C007900D92A23BB107D9F711E0C5
:10032000C1E7D1E000E006C021970109802FFE015E
:100330000E945F19C037D10780E00807A9F70E9423
:10034000CF0F0C94A91B0C94000096E0899FD0015C
:100350001124A751B24F90967C936E935F9791E0D2
:1003600091969C939197E091560EF091570E909133
:10037000550E992339F0309751F0811108C08091C2
:10038000050E1994309719F05C968C91FACF089568
:1003900081E080934B0D08950895AF92BF92CF9264
:1003A000DF92EF92FF920F931F93CF93DF936C0135
:1003B0007B018B01040F151FEB015E01AE18BF0816
:1003C000C017D10759F06991D601ED91FC910190C8
:1003D000F081E02DC6011995892B79F7C501DF91D0
:1003E000CF911F910F91FF90EF90DF90CF90BF9032
:1003F000AF900895FC01538D448D252F30E0842F5C
:1004000090E0821B930B541710F0CF96089501973C
:100410000895FC01918D828D981761F0A28DAE0F29
:10042000BF2FB11D5D968C91928D9F5F9F73928FB0
:1004300090E008958FEF9FEF0895FC01918D828DDC
:10044000981731F0828DE80FF11D858D90E00895A9
:100450008FEF9FEF0895FC01918D228D892F90E001
:10046000805C9F4F821B91098F73992708958CE4BC
:100470009DE00E942B0221E0892B09F420E0822FCD
:100480000895FC01A48DA80FB92FB11DA35ABF4F29
:100490002C91848D90E001968F739927848FA68983
:1004A000B7892C93A089B1898C91837080648C93D7
:1004B000938D848D981306C00288F389E02D808186
:1004C0008F7D80830895EF92FF920F931F93CF93B8
:1004D000DF93EC0181E0888F9B8D8C8D98131AC07F
:1004E000E889F989808185FF15C09FB7F894EE8966
:1004F000FF896083E889F9898081837080648083C3
:100500009FBF81E090E0DF91CF911F910F91FF900D
:10051000EF900895F62E0B8D10E00F5F1F4F0F73B5
:100520001127E02E8C8D8E110CC00FB607FCFACF70
:10053000E889F989808185FFF5CFCE010E944102CB
:10054000F1CFEB8DEC0FFD2FF11DE35AFF4FF08241
:100550009FB7F8940B8FEA89FB8980818062CFCFA7
:10056000CF93DF93EC01888D8823B9F0AA89BB89EA
:10057000E889F9898C9185FD03C0808186FD0DC0D5
:100580000FB607FCF7CF8C9185FFF2CF808185FFF6
:10059000EDCFCE010E944102E9CFDF91CF910895C6
:1005A00080E090E0892B29F00E94370281110E949F
:1005B000000080E090E0892B49F080E090E0892BFA
:1005C00029F00E94000081110E94000080E090E06C
:1005D000892B49F080E090E0892B29F00E940000EF
:1005E00081110E94000080E090E0892B49F080E0BA
:1005F00090E0892B29F00E94000081110C940000EA
:1006000008958150823108F05AC0E82FF0E0882721
:10061000E35FFC4F8F4F0C945F192D0331031F03D1
:10062000250329035F0334033A033E0344034803CD
:100630004C03520356035F035A0360036403809123
:1006400080008F77809380000895809180008F7D57
:10065000F9CF80918000877FF5CF84B58F7784BDF7
:10066000089584B58F7DFBCF8091B0008F77809304
:10067000B00008958091B0008F7DF9CF80919000F7
:100680008F77809390000895809190008F7DF9CFAF
:1006900080919000877FF5CF8091A0008F77809325
:1006A000A00008958091A0008F7DF9CF8091A000D7
:1006B000877FF5CF809120018F7780932001089567
:1006C000809120018F7DF9CF80912001877FF5CF28
:1006D000CF93DF93282F30E0F901E656FD4F849148
:1006E000F901EC5AFD4FD491F901E25FFD4FC4913D
:1006F000CC23A1F081110E940103EC2FF0E0EE0F5A
:10070000FF1FEC50FE4FA591B491EC91ED2381E0D9
:1007100090E009F480E0DF91CF91089580E090E0CF
:10072000FACF862F0C9468031F93CF93DF93282F63
:1007300030E0F901E656FD4F8491F901EC5AFD4F86
:10074000D491F901E25FFD4FC491CC23A9F0162F9B
:1007500081110E940103EC2FF0E0EE0FFF1FE65223
:10076000FE4FA591B4918FB7F894EC91111108C088
:10077000D095DE23DC938FBFDF91CF911F91089539
:10078000DE2BF8CFCF93DF93EC0180917E0E90911A
:100790007F0E029749F4C130D10509F43DC07CF5C4
:1007A00060E0209709F439C080917E0E90917F0E11
:1007B000049749F4C130D10509F45EC00CF039C08A
:1007C000209709F444C080917E0E90917F0E05978A
:1007D00009F0E7C0CA30D10508F0E3C0FE01882760
:1007E000EB50FC4F8F4F0C945F195404600471045C
:1007F0008704A204A404AB04B704C804CF04C23025
:10080000D105A9F060E0C330D10571F68091820E68
:100810000E94940360E006C061E08091820E0E9415
:10082000940361E08091840E0E949403BDCF61E047
:10083000EDCFC230D10539F1C330D10509F0C3CFB6
:1008400061E08091820E0E94940360E022C061E02A
:100850008091820E0E94940360E08091840E0E9439
:10086000940361E08091860E0E94940360E0809181
:10087000880E0E949403A7CF60E08091820E0E94B0
:10088000940361E0EACF60E08091820E0E949403BD
:1008900061E08091840E0E94940360E08091860E56
:1008A0000E94940361E0E3CF60E08091820E0E9499
:1008B000940361E08091840E0E94940361E00BC078
:1008C00060E08091820E0E94940361E08091840E2A
:1008D0000E94940360E08091860E0E94940360E081
:1008E00010C060E08091820E0E94940361E08091CC
:1008F000840E0E94940360E08091860E0E9494030F
:1009000061E08091880E0E94940361E015C060E070
:100910008091820E0E94940361E08091840E0E9477
:10092000940360E08091860E0E94940361E08091C0
:10093000880E0E94940360E080918A0EDF91CF912F
:100940000C94940361E0E4CF61E08091820E0E94F8
:10095000940360E0E2CF61E08091820E0E949403F4
:1009600060E08091840E0E94940361E0DBCF61E03F
:100970008091820E0E94940360E08091840E0E9418
:10098000940361E08091860E0E94940360E0CFCFD3
:1009900061E08091820E0E94940360E08BCF60E062
:1009A000F8CFDF91CF910895862F642F0C94940394
:1009B000CF93DF9390E0FC01EC5AFD4F2491825FCE
:1009C0009D4FFC0184918823C9F090E0880F991F06
:1009D000FC01E054FE4FA591B491FC01E652FE4F9C
:1009E000C591D49161110DC09FB7F8948C91209559
:1009F00082238C938881282328839FBFDF91CF9106
:100A00000895623051F49FB7F8943C91822F8095FD
:100A100083238C93E8812E2BEFCF8FB7F894EC9142
:100A20002E2B2C938FBFEACF862F642F0C94D804E3
:100A30003FB7F8948091B7079091B807A091B90794
:100A4000B091BA0726B5A89B05C02F3F19F00196B3
:100A5000A11DB11D3FBFBA2FA92F982F8827BC0118
:100A6000CD01620F711D811D911D42E0660F771F40
:100A7000881F991F4A95D1F708954F925F926F9200
:100A80007F928F929F92AF92BF92EF92FF920F93BD
:100A90001F93CF93DF93EC0197FF04C0CC27DD2792
:100AA000C81BD90B181619060CF061C081E090E044
:100AB0009093770E8093760E04E010E08AE0E82EA3
:100AC000F12C209709F46FC00E94180580908C0EBD
:100AD00090908D0EA0908E0EB0908F0E2B013C0149
:100AE000481859086A087B088090780E9090790E13
:100AF000A0907A0EB0907B0E481459046A047B04CF
:100B000000F360938C0E70938D0E80938E0E9093F5
:100B10008F0E8091800E9091810E2091760E3091F3
:100B2000770E2130310559F501969093810E80930F
:100B3000800E20917C0E30917D0E8217930721F458
:100B40001092810E1092800E21978091800E9091CC
:100B5000810E20917E0E30917F0EB7012530310538
:100B600009F0B8010E940A190E94C203AACF892B7A
:100B700009F4A2CF1092770E1092760E9DCF892B9A
:100B800041F480917C0E90917D0E9093810E809324
:100B9000800E8091800E9091810E01979093810E2E
:100BA0008093800ED1CFDF91CF911F910F91FF9055
:100BB000EF90BF90AF909F908F907F906F905F90DD
:100BC0004F9008958F929F92AF92BF92CF92DF92F3
:100BD000EF92FF924B015C010E9418056B017C01B2
:100BE0000E9418056C197D098E099F09683E7340A3
:100BF00081059105A8F321E0821A9108A108B108A6
:100C000088EEC80E83E0D81EE11CF11C811491040B
:100C1000A104B10429F7FF90EF90DF90CF90BF902F
:100C2000AF909F908F9008952FB7F8946091B3077D
:100C30007091B4078091B5079091B6072FBF0895C2
:100C40000F931F930E9414066093540D7093550DDB
:100C50008093560D9093570D8CE49DE00E941D02E9
:100C600097FF1DC00E9414060091540D1091550D60
:100C70002091560D3091570D601B710B820B930B19
:100C80000091500D1091510D2091520D3091530D46
:100C90006017710782079307F8F28FEF9FEF1F919C
:100CA0000F910895CF92DF92EF92FF92CF930E941F
:100CB0002006FC0197FD4EC08D32910521F0C097B2
:100CC0000A9708F040C0C12CD12C7601C0E0E13079
:100CD000F105D1F0ED32F105D9F1CF01C0970A97B6
:100CE00098F4AAE0B0E0A70196010E944A186F01AB
:100CF000FF0FEE08FF08C60ED71EE81EF91E80E3A0
:100D0000C81AD108E108F1088CE49DE00E940902AC
:100D10000E942006FC01C0970A97C8F2E130F10555
:100D2000B1F2CC2341F0F094E094D094C094C11C73
:100D3000D11CE11CF11CC701B601CF91FF90EF90CF
:100D4000DF90CF9008958CE49DE00E940902AFCF20
:100D5000C1E0DACFC12CD12C7601EDCF0F931F93D8
:100D6000CF93DF93C82FD62F86E0C89FF0011124C0
:100D7000E751F24F11A2878D90A181309105F1F0DA
:100D800058F082309105F1F1039709F440C0DF91EA
:100D9000CF911F910F9108956623C9F361E070E030
:100DA0008C2F0E94A5010E9414066093410E70933F
:100DB000420E8093430E9093440EE9CF0E94140696
:100DC0000091410E1091420E2091430E3091440E3D
:100DD000AB01BC01401B510B620B730B8091530E96
:100DE0009091540EB0E0A0E084179507A607B707CE
:100DF00048F462E070E08C2FDF91CF911F910F914A
:100E00000C94A50163E070E0D111C1CFF4CF70E084
:100E100060E0F1CF6F927F928F929F92AF92BF92DC
:100E2000CF92DF92EF92FF920F931F93CF93DF93B6
:100E300081E08093550E0E9414060091450E10919A
:100E4000460E2091470E3091480EAB01BC01401B6D
:100E5000510B620B730B8091510E9091520EB0E0CA
:100E6000A0E084179507A607B70708F014C1C0E0F3
:100E700080914F0EC81760F4E0914B0EF0914C0E2C
:100E8000EC0FF11D62E080810E94D804CF5FF0CFAB
:100E9000712C812C912C540183948091500E7816E2
:100EA00008F05FC0072D10E0E0914D0EF0914E0E5E
:100EB000E00FF11F61E080810E94D804E0914D0EA7
:100EC000F0914E0EE00FF11F60E080810E949403CC
:100ED000D501C401072C04C0880F991FAA1FBB1F8E
:100EE0000A94D2F76C017C01E094F094612C80911B
:100EF0004F0E6816F8F4C62DD0E0E0914B0EF0913D
:100F00004C0EEC0FFD1F80810E9468032496CC0FCD
:100F1000DD1FC751D24F892B41F4888199818C29DB
:100F20009D29998388836394E2CF888199818E215A
:100F30009F21F7CFE0914D0EF0914E0EE00FF11F83
:100F400061E080810E94940380914D0E90914E0E3D
:100F5000080F191F60E0F80180810E94D804739483
:100F60009CCFC9EEDDE0FE018FEF9FEF278D30A112
:100F7000232B21F4148E968F858F11A236962EE0A6
:100F8000E532F20799F7F12C96E0D92E80914F0EB9
:100F9000F81608F050C0E12C0F2D10E0000F111FC3
:100FA0000F50124F2091500EE21608F042C0F80187
:100FB000608171810E2C02C0769567950A94E2F7E4
:100FC000F29E900111242E0D311DE9EEFDE080E02E
:100FD000458D568D2417350709F461C08F5F36960D
:100FE0008A30B1F760FF23C0E9EEFDE090E080E0D9
:100FF000448D411117C0E091490EF0914A0EE20F65
:10100000F31F4081D89EF001D99EF00D1124E751C5
:10101000F24F448F368F258F10A2178E61E00E9409
:10102000AE0605C0019636968A30910509F7E3941D
:10103000B9CFF394ABCF10E089A18111182F269678
:10104000FEE0C532DF07C1F70E9414066093450E2B
:101050007093460E8093470E9093480E1123D9F05B
:1010600080910A0E8823B9F08091080E9091090EA4
:10107000019789F48091050EDF91CF911F910F9117
:10108000FF90EF90DF90CF90BF90AF909F908F90A8
:101090007F906F9008951092550E80E0EDCF6170B3
:1010A000BECF0F931F930E9414066093540D70934C
:1010B000550D8093560D9093570D8CE49DE00E9442
:1010C000090297FF1DC00E9414060091540D109153
:1010D000550D2091560D3091570D601B710B820BF1
:1010E000930B0091500D1091510D2091520D3091A4
:1010F000530D6017710782079307F8F28FEF9FEF88
:101100001F910F910895089590E080E00895CF9386
:10111000DF93EC0160E08E810E94940361E08E8198
:101120000E94940360E08E810E9494038BE891E01A
:101130000197F1F7DF91CF910895CF92DF92EF926F
:10114000FF920F931F93CF93DF936C017C0187E095
:10115000E80EF11CD0E0C0E0062F10E0B8010C2E24
:1011600002C0759567950A94E2F76170F701819165
:101170007F010E9494032196C430D10579F7C601FE
:10118000DF91CF911F910F91FF90EF90DF90CF9063
:101190000C948708CF92DF92EF92FF920F931F93E8
:1011A000CF93DF93EC01F62E642F8C810E94940381
:1011B0008D818F3F19F060E00E9494030F2D10E0A5
:1011C0008F8584FF25C06E0187E0C80ED11CF12CED
:1011D000E12CB8010E2C02C0759567950A94E2F7D0
:1011E0006170F60181916F010E949403FFEFEF1A85
:1011F000FF0A88E0E816F10461F7CE01DF91CF9194
:101200001F910F91FF90EF90DF90CF900C94870883
:10121000B80184E0759567958A95E1F7CE010E9443
:101220009D086F2DCE01DF91CF911F910F91FF90FF
:10123000EF90DF90CF900C949D0841E00E94CA0887
:1012400081E090E0089540E00C94CA08FC012389F5
:10125000421710F04FEF420FFC01E40FF11D2489FB
:10126000620F60680C94230961E00E9423098BE3FC
:101270009FE10197F1F708950F931F93CF93DF93A9
:10128000EC01413019F08F8588608F874B8B1C8A69
:1012900080E48D8B6E8B605C6F8B61E08C810E9433
:1012A000D8048D818F3F19F061E00E94D80461E07D
:1012B0008E810E94D8048E0198012C1B3D0B8F85D6
:1012C00084FD0DC084E090E00F5F1F4F28173907A1
:1012D0004CF461E0F80186810E94D804EDCF88E0EB
:1012E00090E0F2CF8BE39DE00197F1F760E08C8115
:1012F0000E94940360E08E810E9494038D818F3F51
:1013000019F060E00E9494036F8564FD34C063E0CF
:10131000CE010E949D080BE416E4C8010197F1F785
:1013200063E0CE010E949D08C8010197F1F763E0D8
:10133000CE010E949D0883E592E00197F1F762E0FB
:10134000CE010E949D086F856062CE010E94230934
:1013500084E0888B6CE0CE010E942309CE010E94BC
:10136000340982E0898B66E0CE01DF91CF911F9135
:101370000F910C9423096062CE010E9423098BE433
:1013800096E40197F1F76F856062CE010E94230910
:1013900083E592E00197F1F76F856062CE010E94CC
:1013A0002309D1CFFB0101900020E9F73197AF016C
:1013B000461B570BDC01ED91FC910280F381E02D7F
:1013C00019948F929F92AF92BF92EF92FF920F93D8
:1013D0001F93CF93DF93CDB7DEB7A1970FB6F894E5
:1013E000DEBF0FBECDBF7C01FA01CB0119A22230B6
:1013F00008F42AE08E010F5D1F4F822E912CB12C34
:10140000A12CBF01A50194010E941E19F901CA0176
:101410006A300CF5605DD8016E938D01232B242B6F
:10142000252B79F790E080E0109721F0BD01C701EE
:101430000E94D209A1960FB6F894DEBF0FBECDBFB1
:10144000DF91CF911F910F91FF90EF90BF90AF90E0
:101450009F908F900895695CDECFCF92DF92EF92DC
:10146000FF92CF93DF936C01990FEE08FF08F7FE10
:1014700023C06DE28CE49DE00E946302EC014427EE
:101480005527BA014C195D096E097F092AE08CE4E1
:101490009DE00E94E109C80FD91F6DE572E08CE460
:1014A0009DE00E94D2098C0F9D1FDF91CF91FF908C
:1014B000EF90DF90CF9008952AE0B701A6018CE469
:1014C0009DE00E94E109EC01E8CFCF93DF93BC01DE
:1014D0008CE49DE00E94D209EC016DE572E08CE4A1
:1014E0009DE00E94D2098C0F9D1FDF91CF9108953E
:1014F00080E692E00E94650A87E992E00E94650A10
:1015000085EB92E00E94650A83ED92E00E94650AF5
:101510008BEE92E00E94650A83E093E00E94650AE8
:1015200086E193E00E94650A8DE293E00E94650ADD
:1015300086E493E00E94650A8AE593E00E94650ACA
:101540008FE693E00E94650A87E893E00C94650AB1
:10155000CF93DF93FC0144815581608171818CE4DC
:101560009DE00E94CD01EC016DE572E08CE49DE010
:101570000E94D2098C0F9D1FDF91CF9108950C948A
:10158000D20986E99EE00E94340941E060E086E9E4
:101590009EE00E94260962E973E086E99EE00E94CF
:1015A000BF0A42E064E086E99EE00E94260967EAFD
:1015B00073E086E99EE00C94BF0A86E99EE00E94F3
:1015C000340941E060E086E99EE00E9426096FEA66
:1015D00073E086E99EE00C94BF0A86E99EE00E94D3
:1015E000340941E060E086E99EE00E9426096FEB45
:1015F00073E086E99EE00C94BF0A86E99EE00E94B3
:10160000340941E060E086E99EE00E9426096EEC24
:1016100073E086E99EE00C94BF0A86E99EE00E9492
:10162000340941E062E086E99EE00E9426096EED01
:1016300073E086E99EE00E94BF0A42E064E086E92A
:101640009EE00E9426096FEE73E086E99EE00C940E
:10165000BF0ACF92DF92EF92FF928EE59EE00E944A
:10166000340967EF73E08EE59EE00E94BF0A41E017
:1016700060E08EE59EE00E94260967E074E08EE55A
:101680009EE00E94BF0AC0901802D09019020D2C53
:10169000000CEE08FF082AE0B701A601F7FE0EC015
:1016A00041E06DE28EE59EE00E94CA08442755277E
:1016B000BA014C195D096E097F092AE08EE59EE0AA
:1016C0000E94E10968EE73E080E090E00E94E2058C
:1016D0008EE59EE00E94340964E174E08EE59EE0B0
:1016E0000E94BF0A41E060E08EE59EE00E9426096C
:1016F00066E274E08EE59EE0FF90EF90DF90CF9081
:101700000C94BF0AFC0180819181009711F00C9428
:10171000171A08950F931F93CF93DF938C01EB015A
:101720000E9434188883C80101960E943418898366
:10173000CE01DF91CF911F910F910895FF920F93EA
:101740001F93CF93DF93EC018B01FB01F0800E948C
:101750003418F81621F06F2DCE010E943C18F801C4
:10176000F1802196CE010E943418F81621F06F2DD9
:10177000CE010E943C18C801DF91CF911F910F91BB
:10178000FF9008950F931F93CF93DF93EC0188810F
:101790009981009759F02A813B812617370730F04D
:1017A00081E0DF91CF911F910F9108958B016F5FC1
:1017B0007F4F0E94A01A009759F0998388831B835A
:1017C0000A832C813D81232B59F7FC011082E8CF3D
:1017D00080E0E7CFEF92FF920F931F93CF93DF93B9
:1017E000EC017B01198218821B821A821D821C82E5
:1017F000FB0101900020E9F731978F01061B170BC1
:10180000B8010E94C20B28813981811113C02115B2
:10181000310519F0C9010E94171A198218821D8218
:101820001C821B821A82DF91CF911F910F91FF9032
:10183000EF9008951D830C83B701C901DF91CF910B
:101840001F910F91FF90EF900C94931BEF92FF92DA
:101850000F931F93CF93DF931F921F92CDB7DEB7E5
:101860008C01FC0111821082138212821582148273
:1018700070E060E00E94C20BF8012081318181118B
:1018800032C02115310519F0C9010E94171AF8015B
:101890001182108215821482138212820E945108D2
:1018A00097FD29C08A30910531F189831A82F801A8
:1018B000E480F580FFEFEF1AFF0AB701C8010E942C
:1018C000C20B882359F3F8012081318184819581ED
:1018D000BE016F5F7F4F820F931F0E94931BF80121
:1018E000F582E482DBCF158214826FE572E0C901D4
:1018F0000E94931BD3CFC8010F900F90DF91CF911F
:101900001F910F91FF90EF9008951F920F920FB6C5
:101910000F9211240BB60F922F933F934F935F9327
:101920006F937F938F939F93AF93BF93EF93FF93A7
:101930008CE49DE00E944102FF91EF91BF91AF9135
:101940009F918F917F916F915F914F913F912F91D7
:101950000F900BBE0F900FBE0F901F9018951F9207
:101960000F920FB60F9211240BB60F922F938F93F5
:101970009F93EF93FF93E0915C0DF0915D0D80815B
:10198000E091620DF091630D82FD1DC09081809108
:10199000650D8F5F8F732091660D821741F0E09186
:1019A000650DF0E0E45BF24F958F8093650DFF913C
:1019B000EF919F918F912F910F900BBE0F900FBEC3
:1019C0000F901F9018958081F2CF1F920F920FB643
:1019D0000F9211242F933F938F939F93AF93BF93B5
:1019E0008091B3079091B407A091B507B091B60765
:1019F0003091B20723E0230F2D3758F50196A11D32
:101A0000B11D2093B2078093B3079093B407A093BE
:101A1000B507B093B6078091B7079091B807A0912A
:101A2000B907B091BA070196A11DB11D8093B70700
:101A30009093B807A093B907B093BA07BF91AF913D
:101A40009F918F913F912F910F900FBE0F901F90FC
:101A5000189526E8230F0296A11DB11DD2CF1F9223
:101A60000F920FB60F9211240BB60F922F933F9344
:101A70004F935F936F937F938F939F93AF93BF9396
:101A8000EF93FF93E0910E02F0910F021995FF91F1
:101A9000EF91BF91AF919F918F917F916F915F91E6
:101AA0004F913F912F910F900BBE0F900FBE0F9053
:101AB0001F9018951F920F920FB60F9211240BB61C
:101AC0000F922F933F934F935F936F937F938F93D7
:101AD0009F93AF93BF93EF93FF93E0910C02F0912C
:101AE0000D021995FF91EF91BF91AF919F918F9149
:101AF0007F916F915F914F913F912F910F900BBE0E
:101B00000F900FBE0F901F9018951F920F920FB657
:101B10000F9211240BB60F922F933F934F935F9325
:101B20006F937F938F939F93AF93BF93EF93FF93A5
:101B3000E0910202F09103021995FF91EF91BF919C
:101B4000AF919F918F917F916F915F914F913F9155
:101B50002F910F900BBE0F900FBE0F901F901895F6
:101B60001F920F920FB60F9211240BB60F922F9364
:101B70003F934F935F936F937F938F939F93AF9315
:101B8000BF93EF93FF93E0910002F091010219954A
:101B9000FF91EF91BF91AF919F918F917F916F9145
:101BA0005F914F913F912F910F900BBE0F900FBE01
:101BB0000F901F9018951F920F920FB60F9211243D
:101BC0000BB60F922F933F934F935F936F937F9337
:101BD0008F939F93AF93BF93EF93FF93E0910A028C
:101BE000F0910B021995FF91EF91BF91AF919F91E9
:101BF0008F917F916F915F914F913F912F910F90B6
:101C00000BBE0F900FBE0F901F9018951F920F9252
:101C10000FB60F9211240BB60F922F933F934F9351
:101C20005F936F937F938F939F93AF93BF93EF9344
:101C3000FF93E0910802F09109021995FF91EF914D
:101C4000BF91AF919F918F917F916F915F914F91D4
:101C50003F912F910F900BBE0F900FBE0F901F90D2
:101C600018951F920F920FB60F9211240BB60F9278
:101C70002F933F934F935F936F937F938F939F9394
:101C8000AF93BF93EF93FF93E0910602F0910702A9
:101C90001995FF91EF91BF91AF919F918F917F9196
:101CA0006F915F914F913F912F910F900BBE0F90CD
:101CB0000FBE0F901F9018951F920F920FB60F92A4
:101CC00011240BB60F922F933F934F935F936F9313
:101CD0007F938F939F93AF93BF93EF93FF93E09185
:101CE0000402F09105021995FF91EF91BF91AF9118
:101CF0009F918F917F916F915F914F913F912F9124
:101D00000F900BBE0F900FBE0F901F901895EF9283
:101D1000FF921F93CF93DF9310924F0D10924E0DB1
:101D200088EE93E0A0E0B0E08093500D9093510DC9
:101D3000A093520DB093530D89E392E090934D0D13
:101D400080934C0D85EC90E09093590D8093580D45
:101D500084EC90E090935B0D80935A0D80EC90E0C2
:101D600090935D0D80935C0D81EC90E090935F0DFE
:101D700080935E0D82EC90E09093610D8093600DF6
:101D800086EC90E09093630D8093620D1092650D48
:101D90001092660D1092670D1092680D1092990EB8
:101DA0001092980E85E5E82E82E0F82EF092970EBC
:101DB000E092960E83E280939A0E1FEF10939B0E93
:101DC00084E280939C0E85E280939D0E86E2809350
:101DD0009E0E87E280939F0E88E28093A00E109261
:101DE000A10E1092A20E1092A30E1092A40E1092A9
:101DF000A50E41E060E186E99EE00E943C0963E3B4
:101E000074E080E99EE00E94EA0B1092810E10922D
:101E1000800E1092770E1092760E10928C0E109209
:101E20008D0E10928E0E10928F0EC4E0D0E0D093E3
:101E30007D0EC0937C0E82E090E09093830E8093A1
:101E4000820E83E090E09093850E8093840ED09371
:101E5000870EC093860E85E090E09093890E809364
:101E6000880E61E082E00E94D80461E08091840ED7
:101E70000E94D80461E08091860E0E94D80461E03F
:101E80008091880E0E94D80410928B0E10928A0EB8
:101E9000D0937F0EC0937E0E1092610E1092600E52
:101EA000F0925F0EE0925E0E80E38093620E1093DC
:101EB000630E81E38093640E82E38093650E83E377
:101EC0008093660E84E38093670E85E38093680EAB
:101ED0001092690E10926A0E10926B0E10926C0E98
:101EE00010926D0E41E060E18EE59EE00E943C099B
:101EF0006FE572E088E59EE00E94EA0B1092EB0D20
:101F00001092EF0D1092EE0D1092F00D8BE492E016
:101F10009093EA0D8093E90DE5E0FEE010821482D3
:101F20001382158236968EE0E134F807B9F78DE119
:101F300092E090934C0E80934B0E8AE192E0909346
:101F40004E0E80934D0E84E080934F0E83E080937D
:101F5000500E81E292E090934A0E8093490E8AE0FF
:101F600090E09093520E8093510E84EF91E0909305
:101F7000540E8093530E1092570E1092560E1092DC
:101F8000450E1092460E1092470E1092480E109277
:101F9000550EDF91CF911F91FF90EF900895CF9351
:101FA000DF93CDB7DEB760970FB6F894DEBF0FBEF4
:101FB000CDBF789484B5826084BD84B5816084BDD2
:101FC00085B5826085BD85B5816085BD80916E00D7
:101FD000816080936E001092810080918100826008
:101FE0008093810080918100816080938100809145
:101FF00080008160809380008091B1008460809334
:10200000B1008091B00081608093B0008091910018
:102010008260809391008091910081608093910013
:10202000809190008160809390008091A1008260F7
:102030008093A1008091A10081608093A100809194
:10204000A00081608093A000809121018260809334
:1020500021018091210181608093210180912001E3
:1020600081608093200180917A00846080937A005F
:1020700080917A00826080937A0080917A008160FA
:1020800080937A0080917A00806880937A00109221
:10209000C100E0915C0DF0915D0D82E08083E091E4
:1020A000580DF091590D1082E0915A0DF0915B0D91
:1020B0008FEC80831092640DE091600DF091610DC2
:1020C00086E08083E0915E0DF0915F0D80818061FC
:1020D0008083E0915E0DF0915F0D80818860808348
:1020E000E0915E0DF0915F0D808180688083E091CA
:1020F0005E0DF0915F0D80818F7D808320917C0E3D
:1021000030917D0E032E000C440B550B60E077E8F8
:1021100083E993E00E944019CA01B90128E631E041
:1021200040E050E00E9440192093780E3093790EE1
:1021300040937A0E50937B0E42E064E18EE59EE080
:102140000E943C090E94290B6BEB77E080E190E054
:102150000E948A0B8091BB079091BC0762E172E0FC
:10216000019709F4DFC090E080E00E949E0B68E1D7
:1021700072E082E090E00E949E0B60E172E084E0F9
:1021800090E00E949E0B63E372E088E090E00E9482
:102190009E0B64E172E08CE090E00E949E0B66E191
:1021A00072E08EE090E00E949E0B61E47DE084E1AD
:1021B00090E00E949E0B40E9E42E4EE0F42E0CE1EC
:1021C00010E0F701D1907F01C8010E943418D816A1
:1021D00021F06D2DC8010E943C180F5F1F4F023285
:1021E000110579F781E090E09093BC078093BB07DD
:1021F0006BEB77E080E190E00E949E0B88E394E037
:102200000E94650A44E064E186E99EE00E943C0980
:1022100061E08DE00E94D80462E082E00E94D80470
:1022200088EC91E0909301028093000280916A0013
:102230008C7F816080936A00EC9A0E94C10A0E94A0
:10224000780A0E9414066093470D7093480D80939E
:10225000490D90934A0D2EE0322E02E010E080915D
:102260004B0D8823A1F061E08DE00E9494030E9451
:102270000D0B68EE73E080E090E00E94E20560E004
:102280008DE00E94940310924B0D0E940D0B0E9452
:102290001406C090470DD090480DE090490DF09085
:1022A0004A0D9B01AC012C193D094E095F096901DA
:1022B0007A0138EEC31633E0D306E104F10408F4E2
:1022C000A9C16093470D7093480D8093490D909379
:1022D0004A0D8CE49DE00E942B02181619060CF0A2
:1022E00099C10E9452066B01CB010E942D0AC114B4
:1022F000D10409F48FC1F6013197EB30F10508F0F4
:1023000098C38827E957FE4E8F4F0C945F19F4113C
:10231000EA1341145A149514B114BC14C714FC14D4
:102320000715161590E080E00E948A0B68E172E0C4
:1023300082E090E00E948A0B60E172E084E090E02D
:102340000E948A0B63E372E088E090E00E948A0BAF
:1023500064E172E08CE090E00E948A0B66E172E03A
:102360008EE090E00E948A0B61E47DE084E190E0E1
:102370000E948A0B30E9E32E3EE0F32E0CE110E0E0
:10238000C8010E943418F70181937F010F5F1F4F2E
:1023900002321105A9F784E690E00E942D0A80918F
:1023A0001402909115020E942D0A8091410D909186
:1023B000420D0E942D0A80911002909111020E94FC
:1023C0002D0A80911202909113020E942D0A80E939
:1023D0009EE00E94A80A80911802909119020E9422
:1023E0002D0A80E694E00CCF0E94FD0A6FE572E0B2
:1023F000CE0107960E94EA0B8091350D9091360D23
:10240000843691050CF0C6C189E894E00E94650A03
:1024100082EA94E00E94650A8CE49DE00E942B020F
:10242000892BD1F30E9452062B0182ED94E00E9489
:10243000650A8CE49DE00E942B02892BD1F3CE012A
:1024400001960E94260C8F819885009709F48AC115
:1024500069817A816115710509F482C149855A85BE
:102460002D813E814217530708F47AC10E94931BC5
:102470008D819E819C878B871E821D82CE01019655
:102480000E94820B8AEE94E00E94650A8CE49DE033
:102490000E942B02892BD1F30E9452064B01EDEBD7
:1024A000F7E090E080E0258521116DC16F8178858E
:1024B000389E9001399E300D1124A9014354584F84
:1024C0007A014AE050E0C7010E949A1BC401840DC2
:1024D000951DF7019487838781E0858780913F0D63
:1024E0009091400D840D951D9093400D80933F0D6C
:1024F00020913D0D30913E0D280D391D30933E0D3C
:1025000020933D0D820F931F9093360D8093350DD0
:102510008091390D90913A0D019690933A0D8093E8
:10252000390D7401F1E0EF1AF108C7010E942D0A7C
:1025300040913F0D5091400D2091120230911302B5
:10254000429FC001439F900D529F900D11242091F6
:102550003B0D30913C0D820F931F40911002509122
:102560001102E49E9001E59E300DF49E300D112481
:10257000820F931F90933C0D80933B0D0E942D0A78
:102580008091370D9091380D181619062CF401978B
:102590009093380D8093370D84E195E00E94650A91
:1025A00067E275E08CE49DE00E94BF0ACE010796C9
:1025B0000E94A80A63E375E08CE49DE00E94BF0AD4
:1025C000C2010E942D0A64E475E08CE49DE00E9443
:1025D000BF0AC4010E942D0A60ED77E080E090E020
:1025E0000E94E2050E94780ACE0107960E94820BA3
:1025F0000E94ED0A68EB7BE080E090E00E94E2053B
:102600000E94DD0A60ED77E080E090E00E94E20544
:102610000E94C10A0E940A07F82E8091450D9091F0
:10262000460D009709F408C2039708F00CC2809188
:10263000580E9091590EC12CD12C7601009719F0AB
:102640000E94D4166B01D092440DC092430DC11468
:10265000D10409F4EBC20E9414066D877E878F8730
:10266000988B80911802909119028C9DB0018D9DDC
:10267000700D9C9D700D1124072E000C880B990B7A
:102680000E9417176B017C014B015C018EE59EE0F7
:102690000E94340969E777E08EE59EE00E94BF0A58
:1026A000A7019601C701B6010E94051964E877E009
:1026B00081111BC026013701E89477F82FEF3FEF17
:1026C0004FE75FE7C301B2010E9405198111F4C110
:1026D0002FEF3FEF4FE75FE7C301B2010E941017F2
:1026E00018160CF0E9C168E877E08EE59EE00E94DC
:1026F000D20941E060E08EE59EE00E94260960E993
:1027000077E08EE59EE00E94BF0A0E940A078332AE
:1027100009F4C0C20E9414062D853E854F85588954
:10272000621B730B840B950B683B7B408105910505
:1027300060F32091430D3091440D809116029091E9
:102740001702821793070CF074C28EE59EE00E9478
:10275000340964EA77E08EE59EE00E94BF0A66C213
:102760000E94171A89819A8198878F838B819C8117
:102770009A8789878D819E819C878B871A8219828F
:102780001C821B8279CE01963E968436910509F013
:102790008ACEA4CE8091370D9091380D01969093FA
:1027A000380D8093370D86E99EE00E94340941E0A0
:1027B00060E086E99EE00E94260963E575E086E90F
:1027C0009EE00E94BF0A60ED77E080E090E00E940A
:1027D000E2050ACF0E94FD0A8DE595E00E94650A98
:1027E0008CE49DE00E942B02892BD1F3CE0101964F
:1027F0000E94260CA980BA809DEBC92E97E0D92EA5
:10280000F12CE12CF6018585882351F1B501C60133
:102810000E948A1B892B21F53E9CF0013F9CF00D04
:102820001124E354F84F8091350D9091360D238596
:102830003485821B930B9093360D8093350D15864E
:102840008DE895E00E94650A8091390D90913A0DCE
:10285000019790933A0D8093390DCE010196C6CE23
:10286000FFEFEF1AFF0A2EE0C20ED11C34E6E3168A
:10287000F10441F689EA95E00E94650A0E94780A0F
:10288000ECCF68EC75E08CE49DE00E94BF0A80917B
:102890003F0D9091400D0E942D0A63ED75E08CE490
:1028A0009DE00E94BF0A80913D0D90913E0D0E94D7
:1028B0002D0A69C28CED95E00E94650A83EF95E0D0
:1028C0000E94650A8DEBE82E87E0F82EF7018585DA
:1028D0008823D1F069E076E08CE49DE00E94BF0A95
:1028E000C7010E94650A68E176E08CE49DE00E94E1
:1028F000BF0AF701838594850E942D0A6DE572E079
:102900008CE49DE00E94D209FEE0EF0EF11C25E36D
:10291000E2162DE0F206D1F60E94780A60ED77E02B
:1029200080E090E00E94E20575CE64E276E08CE4FF
:102930009DE00E94BF0A40911802509119028091B7
:10294000410D9091420D489F9001499F300D589F35
:10295000300D112480913B0D90913C0D820F931FFF
:10296000A6CF6AE376E08CE49DE00E94BF0A8091E6
:10297000390D90913A0D9BCF60E576E08CE49DE0B7
:102980000E94BF0A809116029091170290CF68E6CC
:1029900076E08CE49DE00E94BF0A8CE49DE00E94FA
:1029A0002B02892BD1F3CE0101960E94260C2D819A
:1029B0003E818091940E9091950E28173907C9F4A5
:1029C00089819A816091900E7091910E009709F41F
:1029D0008BC16115710539F4232B09F493C1FC01F6
:1029E000808190E08CC10E948A1B89C184EC96E0B2
:1029F000BEC189EF96E0BBC161E277E08CE49DE067
:102A00000E94BF0A8091370D9091380D50CF809170
:102A1000350D9091360D8436910529F483E397E0C6
:102A20000E94650AB0C18DE397E0FACF8BE497E08E
:102A3000F7CF87E597E0F4CFF3E2FF120DC01093D4
:102A4000460D0093450D64E670E080E090E00E9442
:102A5000E2050E94D00203CCFF20A9F3F9821A827A
:102A6000C0905C0ED0905D0E2FEFC21AD20AB60154
:102A700088E59EE00E94C20B882399F02091580EB1
:102A80003091590E80915C0E90915D0EBE016F5F8A
:102A90007F4F820F931F0E94931BD0925D0EC092B6
:102AA0005C0E8EE59EE00E94340941E06F2D8EE5BC
:102AB0009EE00E94CA08C7CF2FEF3FEF4FE75FE4C9
:102AC000C701B6010E94001918161CF46CE877E0E3
:102AD0000CCE2FEF3FEF4FE75FECC701B6010E942E
:102AE000101787FDF3CF20E030E0A901C701B60140
:102AF0000E94101787FF0CC041E06DE28EE59EE05A
:102B00000E94CA0846015701B7FAB094B7F8B094CA
:102B10002AE037ED43EA5BE3C501B4010E94651882
:102B20004B015C010E94D1186B017C010E941517BA
:102B30009B01AC01C501B4010E9464184B015C010A
:102B40002AE0B701A6018EE59EE00E94E10941E07E
:102B50006EE28EE59EE00E94CA0820E030E040E28E
:102B600051E4C501B4010E9476174B015C010E943B
:102B7000D1186B01F12CE12C2AE0B701A6018EE5FA
:102B80009EE00E94E109C701B6010E9415179B0152
:102B9000AC01C501B4010E94641820E030E040E2BD
:102BA00051E40E9476170E94D118AB0170E060E0FA
:102BB0002AE08EE59EE00E94E1099BCD8091410DC7
:102BC0009091420DE80EF91EF092420DE092410DF7
:102BD00061E47DE084E190E00E949E0B809116020A
:102BE000909117022091430D3091440D821B930B5D
:102BF000909317028093160266E172E08EE090E0F7
:102C00000E949E0B8EE59EE00E94340968E977E001
:102C10008EE59EE00E94BF0A68EE73E080E090E0DF
:102C20000E94E2051092440D1092430D0E94290B60
:102C300004C01092440D1092430D70E060E088E5EE
:102C40009EE00E94C20B2091580E3091590E8111C6
:102C500017C02115310519F0C9010E94171A1092E9
:102C6000590E1092580E10925D0E10925C0E10923A
:102C70005B0E10925A0E1092460D1092450DE3CE47
:102C800010925D0E10925C0E6FE572E0C9010E9419
:102C9000931BF1CFE090430DF090440D809116020C
:102CA000909117028E159F050CF443CD8CE090E0B7
:102CB0000E943D0560ED77E080E090E00E94E20533
:102CC000D12CC12CCE14DF040CF078CF84E090E03E
:102CD0000E943D0560ED77E080E090E00E94E20513
:102CE0004FEFC41AD40AEECF6115710559F0232BAA
:102CF00049F0FB01808190E0919581959109892BA4
:102D000009F077CE8EE592E00E94650A6DE776E0E5
:102D10008CE49DE00E94BF0A8CE49DE00E942B029F
:102D2000892BD1F30E9452066B01CB010E942D0A20
:102D30008EED96E01C141D04D4F46091160270917F
:102D400017026C0D7D1D809114029091150286175B
:102D500097070CF44BCE709317026093160266E14E
:102D600072E08EE090E00E949E0B80EB96E00E9465
:102D7000650A60ED77E080E090E00E94E205CE0118
:102D800001960E94820B60ED77E080E090E00E9467
:102D9000E2050E94780A3ECC88E59EE00E94820B04
:102DA00080E99EE00C94820B1F93FC0199278827F1
:102DB000BC01E89411911032E9F3193010F01E3083
:102DC000C8F31B3251F01D3249F4689406C00E94CA
:102DD000FB16610F711D811D911D119110531A3049
:102DE000B0F33EF490958095709561957F4F8F4F2D
:102DF0009F4F1F910895592F482F372F262F660F69
:102E0000771F881F991F660F771F881F991F620FF2
:102E1000731F841F951F660F771F881F991F0895C2
:102E20000E94521708F481E00895E89409C097FBC6
:102E30003EF490958095709561957F4F8F4F9F4F91
:102E40009923A9F0F92F96E9BB279395F6958795D5
:102E500077956795B795F111F8CFFAF4BB0F11F498
:102E600060FF1BC06F5F7F4F8F4F9F4F16C088233F
:102E700011F096E911C0772321F09EE8872F762F75
:102E800005C0662371F096E8862F70E060E02AF0B6
:102E90009A95660F771F881FDAF7880F96958795A2
:102EA00097F90895990F0008550FAA0BE0E8FEEF77
:102EB00016161706E807F907C0F012161306E407FE
:102EC000F50798F0621B730B840B950B39F40A26F7
:102ED00061F0232B242B252B21F408950A2609F4D5
:102EE000A140A6958FEF811D811D08950E9489172D
:102EF0000C94FA170E94EC1738F00E94F31720F098
:102F0000952311F00C94E3170C94E91711240C94F9
:102F10002E180E940B1870F3959FC1F3950F50E087
:102F2000551F629FF001729FBB27F00DB11D639F7B
:102F3000AA27F00DB11DAA1F649F6627B00DA11D21
:102F4000661F829F2227B00DA11D621F739FB00DC7
:102F5000A11D621F839FA00D611D221F749F332737
:102F6000A00D611D231F849F600D211D822F762FD0
:102F70006A2F11249F5750409AF0F1F088234AF0AD
:102F8000EE0FFF1FBB1F661F771F881F9150504019
:102F9000A9F79E3F510580F00C94E3170C942E186E
:102FA0005F3FE4F3983ED4F3869577956795B795A0
:102FB000F795E7959F5FC1F7FE2B880F911D9695BA
:102FC000879597F9089597F99F6780E870E060E02A
:102FD00008959FEF80EC089500240A9416161706B2
:102FE00018060906089500240A94121613061406FA
:102FF00005060895092E0394000C11F4882352F05D
:10300000BB0F40F4BF2B11F460FF04C06F5F7F4F14
:103010008F4F9F4F089557FD9058440F551F59F0FB
:103020005F3F71F04795880F97FB991F61F09F3FB5
:1030300079F087950895121613061406551FF2CFDE
:103040004695F1DF08C0161617061806991FF1CF2E
:1030500086957105610508940895E894BB27662755
:103060007727CB0197F90895F999FECF92BD81BDDD
:10307000F89A992780B50895262FF999FECF1FBA9F
:1030800092BD81BD20BD0FB6F894FA9AF99A0FBE91
:10309000019608950E945518A59F900DB49F900D1C
:1030A000A49F800D911D11240895A29FB001B39F8C
:1030B000C001A39F700D811D1124911DB29F700D41
:1030C000811D1124911D08955058BB27AA270E94E5
:1030D0007C180C94FA170E94EC1738F00E94F31732
:1030E00020F039F49F3F19F426F40C94E9170EF4FC
:1030F000E095E7FB0C94E317E92F0E940B1858F3B7
:10310000BA17620773078407950720F079F4A6F5CC
:103110000C942D180EF4E0950B2EBA2FA02D0B0158
:10312000B90190010C01CA01A0011124FF27591B0C
:1031300099F0593F50F4503E68F11A16F040A22F12
:10314000232F342F4427585FF3CF46953795279583
:10315000A795F0405395C9F77EF41F16BA0B620B82
:10316000730B840BBAF09150A1F0FF0FBB1F661FC9
:10317000771F881FC2F70EC0BA0F621F731F841F0C
:1031800048F4879577956795B795F7959E3F08F032
:10319000B0CF9395880F08F09927EE0F97958795F4
:1031A00008950E94131888F09F5798F0B92F992717
:1031B000B751B0F0E1F0660F771F881F991F1AF022
:1031C000BA95C9F714C0B13091F00E942D18B1E042
:1031D00008950C942D18672F782F8827B85F39F041
:1031E000B93FCCF3869577956795B395D9F73EF4BB
:1031F00090958095709561957F4F8F4F9F4F089563
:103200000E94521708F48FEF08950E945217880BFE
:10321000990B089597FB072E16F4009407D077FDBD
:1032200009D00E94671907FC05D03EF4909581955E
:103230009F4F0895709561957F4F0895A1E21A2ED2
:10324000AA1BBB1BFD010DC0AA1FBB1FEE1FFF1F4A
:10325000A217B307E407F50720F0A21BB30BE40B9A
:10326000F50B661F771F881F991F1A9469F76095E1
:103270007095809590959B01AC01BD01CF0108959B
:10328000052E97FB1EF400940E94571957FD07D096
:103290000E941E1907FC03D04EF40C945719509548
:1032A0004095309521953F4F4F4F5F4F0895909532
:1032B0008095709561957F4F8F4F9F4F0895EE0FCA
:1032C000FF1F881F8BBF0790F691E02D1994AA1B52
:1032D000BB1B51E107C0AA1FBB1FA617B70710F001
:1032E000A61BB70B881F991F5A95A9F78095909533
:1032F000BC01CD0108950F931F93CF93DF938230CC
:10330000910510F482E090E0E091B00EF091B10EE2
:1033100030E020E0B0E0A0E0309799F421153105CD
:1033200009F44AC0281B390B24303105D8F58A81AD
:103330009B816115710589F1FB0193838283FE01F5
:1033400011C0408151810281138148175907E0F073
:103350004817590799F4109761F012960C93129739
:1033600013961C933296CF01DF91CF911F910F914D
:1033700008950093B00E1093B10EF4CF21153105CE
:1033800051F04217530738F0A901DB019A01BD0142
:10339000DF01F801C1CFEF01F9CF9093B10E809317
:1033A000B00ECDCFFE01E20FF31F81939193225017
:1033B000310939832883D7CF2091AE0E3091AF0EDB
:1033C000232B41F420912F02309130023093AF0E25
:1033D0002093AE0E20912D0230912E022115310541
:1033E00041F42DB73EB74091310250913202241B77
:1033F000350BE091AE0EF091AF0EE217F307A0F49B
:103400002E1B3F0B2817390778F0AC014E5F5F4F3A
:103410002417350748F04E0F5F1F5093AF0E4093AF
:10342000AE0E819391939FCFF0E0E0E09CCFCF93DD
:10343000DF930097E9F0FC01329713821282A0918A
:10344000B00EB091B10EED0130E020E01097A1F484
:1034500020813181820F931F2091AE0E3091AF0EEB
:103460002817390709F061C0F093AF0EE093AE0E54
:10347000DF91CF910895EA01CE17DF07E8F54A8181
:103480005B819E0141155105B1F7E901FB83EA8398
:1034900049915991C40FD51FEC17FD0761F4808144
:1034A00091810296840F951FE90199838883828117
:1034B00093819B838A83F0E0E0E012968D919C914A
:1034C00013970097B9F52D913C911197CD01029674
:1034D000820F931F2091AE0E3091AF0E281739073F
:1034E00039F6309751F51092B10E1092B00EB0939C
:1034F000AF0EA093AE0EBCCFD383C2834081518167
:10350000840F951FC817D90761F44E5F5F4F8881FC
:103510009981480F591F518340838A819B819383EE
:1035200082832115310509F0B0CFF093B10EE093FD
:10353000B00E9ECFFD01DC01C0CF13821282D7CF27
:103540004F925F926F927F928F929F92AF92BF92B3
:10355000CF92DF92EF92FF920F931F93CF93DF935F
:103560008C01009799F4CB01DF91CF911F910F91BE
:10357000FF90EF90DF90CF90BF90AF909F908F9093
:103580007F906F905F904F900C947B19FC01E60F39
:10359000F71F9C0122503109E217F30708F4AEC06F
:1035A000D901CD91DC911197C617D70720F1C5300D
:1035B000D10578F0CE0104978617970750F0C61B07
:1035C000D70B2297C193D1936D937C93CF010E9427
:1035D000171AC801DF91CF911F910F91FF90EF90C3
:1035E000DF90CF90BF90AF909F908F907F906F9023
:1035F0005F904F9008955B01AC1ABD0A4C018C0E90
:103600009D1EA091B00EB091B10E512C412CF12C09
:10361000E12C109731F58091AE0E9091AF0E881588
:10362000990509F05CC04616570608F058C080910D
:103630002D0290912E02009741F48DB79EB74091D4
:10364000310250913202841B950BE817F90708F0FC
:1036500055C0F093AF0EE093AE0EF9017183608315
:10366000B8CF8D919C91119712966C9012971396EA
:103670007C901397A815B90559F56C0142E0C40E6A
:10368000D11CCA14DB0420F1AC014A195B09DA0130
:103690001296159780F06282738251834083D9011C
:1036A0006D937C93E114F10471F0D7011396FC93B0
:1036B000EE9312978ECF22968C0F9D1FF901918366
:1036C0008083F301EFCFF093B10EE093B00E81CF82
:1036D0004816590608F42C017D01D3019ACFCB017D
:1036E0000E947B197C01009749F0AE01B8010E944D
:1036F000811BC8010E94171A87016BCF10E000E000
:1037000068CFFB01DC0102C001900D924150504096
:10371000D8F70895FB01DC018D910190801901100B
:10372000D9F3990B0895FB01DC0101900D92002063
:10373000E1F70895FB01DC014150504048F0019051
:103740000D920020C9F701C01D9241505040E0F792
:10375000089511E0C1E7D1E000E006C0802FFE012E
:103760000E945F192196011DC237D10780E008072A
:06377000A9F7F894FFCF59
:1037760083088308830883088308830883088308EB
:103786001027881332003200DC050A0B0C090807E3
:10379600063132333435363738392A30230000B211
:1037A6000E80006400000000006302CD01FA01B043
:1037B600022B0209021D02000000001405D4049128
:1037C60003000000001D09CD018408CC010D0A008C
:1037D60057656C636F6D6520746F20746865205142
:1037E6007565656E20456C697A61626574682050FE
:1037F60061726B204D616E6167656D656E74204305
:103806006F6E736F6C6500312E2052656769737435
:10381600657220496E636F6D696E6720546F7572AD
:103826006973747300322E2052656769737465720A
:10383600204F7574676F696E6720546F7572697370
:10384600747300332E20546F757269737473206914
:103856006E20746865207061726B00342E20566588
:103866006869636C657320696E2074686520706191
:10387600726B00352E204D6F6E657920636F6C6C10
:10388600656374656400362E2044726976657273CA
:1038960020696E20746865207061726B00372E2077
:1038A600426F74746C657320696E20746865206657
:1038B600726964676500382E205265706C656E69A2
:1038C60073682046726964676500392E2043617209
:1038D60073206F757473696465207061726B003153
:1038E600302E205061726B20436170616369747978
:1038F6002053746174650031312E204C6F676F75EB
:103906007400517565656E20456C697A61626574EF
:1039160068205061726B0057656C636F6D65004778
:1039260061746520636C6F73696E672E2E2E00437B
:10393600617220617420476174652E2E2E005265D7
:1039460067697374726174696F6E2E2E2E00496EEC
:10395600636F6D696E6720546F7572697374005674
:10396600656869636C6500476574206120626F74E1
:10397600746C65206F6600776174657220617420CF
:1039860073682E0053656C65637420746865206ED9
:10399600756D62657200206F6620626F74746C6567
:1039A600733A003132333400436F6E66696775725D
:1039B6006174696F6E2076616C75657320777269C4
:1039C6007474656E20746F204D656D6F72792E006C
:1039D600436F6E66696775726174696F6E20766192
:1039E6006C756573206C6F616465642066726F6DBB
:1039F600204D656D6F72792E00456E74657220726A
:103A06006567697374726174696F6E20646174614D
:103A16003A00456E746572206E756D626572206F30
:103A260066206368696C6472656E2028313020797F
:103A36006561727320616E642062656C6F77293AE6
:103A46002000456E74657220636172206E756D622A
:103A5600657220706C6174653A00456E74657220FB
:103A66006E756D626572206F66206164756C747325
:103A7600202861626F766520313020796561727326
:103A8600293A2000526567697374726174696F6EB2
:103A960020446174613A0043617220506C61746520
:103AA6003A20004368696C6472656E20436F756ED8
:103AB600743A20004164756C747320436F756E749C
:103AC6003A20005041524B2046554C4C00456E74EE
:103AD600657220746865206E756D62657220706C03
:103AE600617465206F6620746865206578697469FD
:103AF6006E672076656869636C653A20004578696B
:103B060074696E672076656869636C65207265679F
:103B1600697374657265642E0056656869636C65C1
:103B2600206E6F7420666F756E6420696E207468EF
:103B360065207061726B2E004368696C6472656EF5
:103B46003A20004164756C74733A200056656869C2
:103B5600636C657320696E20746865207061726B92
:103B66003A200056656869636C657320696E207437
:103B76006865207061726B3A004E756D62657220E1
:103B8600506C6174653A20004F63637570616E74A2
:103B9600733A20004D6F6E657920636F6C6C6563B8
:103BA6007465643A205547582000447269766572F8
:103BB6007320696E20746865207061726B3A20000C
:103BC600426F74746C657320696E20746865206634
:103BD60072696467653A2000456E74657220746880
:103BE600652070617373776F72643A2000456E7456
:103BF600657220746865206E756D626572206F66E9
:103C060020626F74746C657320746F206164642025
:103C1600746F20746865206672696467653A20006F
:103C2600467269646765207265706C656E69736853
:103C360065642E004672696467652063617061631E
:103C46006974792073757270617373656400496E67
:103C560076616C6964206E756D626572206F662090
:103C6600626F74746C65732E00496E76616C69645C
:103C76002070617373776F72642E205265706C6565
:103C86006E6973686D656E742064656E6965642E11
:103C96000057616974696E6720546F757269737431
:103CA6007320005061726B2046756C6C0050617217
:103CB6006B204E6F742046756C6C004C6F676765A1
:103CC60064206F75742E00496E76616C696420639A
:103CD600686F6963652E20506C6561736520747228
:103CE6007920616761696E2E00436F73743A2055BF
:103CF600475820006E616E00696E66006F7666003A
:103D060050726573732023005468616E6B20596F7F
:103D1600752E2E004F76657220746865204D617889
:023D260000009B
:00000001FF
